{
  "_format": "hh-sol-artifact-1",
  "contractName": "DDWorldShop",
  "sourceName": "contracts/Erc.sol",
  "abi": [
    {
      "inputs": [],
      "stateMutability": "nonpayable",
      "type": "constructor"
    },
    {
      "anonymous": false,
      "inputs": [
        {
          "indexed": false,
          "internalType": "uint256",
          "name": "_amount",
          "type": "uint256"
        },
        {
          "indexed": true,
          "internalType": "address",
          "name": "_buyer",
          "type": "address"
        }
      ],
      "name": "Bought",
      "type": "event"
    },
    {
      "anonymous": false,
      "inputs": [
        {
          "indexed": false,
          "internalType": "uint256",
          "name": "_amount",
          "type": "uint256"
        },
        {
          "indexed": true,
          "internalType": "address",
          "name": "_seller",
          "type": "address"
        }
      ],
      "name": "Sold",
      "type": "event"
    },
    {
      "inputs": [
        {
          "internalType": "address",
          "name": "member",
          "type": "address"
        }
      ],
      "name": "_tokenbalance",
      "outputs": [
        {
          "internalType": "uint256",
          "name": "",
          "type": "uint256"
        }
      ],
      "stateMutability": "view",
      "type": "function"
    },
    {
      "inputs": [],
      "name": "buy",
      "outputs": [],
      "stateMutability": "payable",
      "type": "function"
    },
    {
      "inputs": [],
      "name": "owner",
      "outputs": [
        {
          "internalType": "address payable",
          "name": "",
          "type": "address"
        }
      ],
      "stateMutability": "view",
      "type": "function"
    },
    {
      "inputs": [
        {
          "internalType": "uint256",
          "name": "_amountToSell",
          "type": "uint256"
        }
      ],
      "name": "sell",
      "outputs": [],
      "stateMutability": "nonpayable",
      "type": "function"
    },
    {
      "inputs": [],
      "name": "token",
      "outputs": [
        {
          "internalType": "contract IERC20",
          "name": "",
          "type": "address"
        }
      ],
      "stateMutability": "view",
      "type": "function"
    },
    {
      "inputs": [],
      "name": "tokenBalance",
      "outputs": [
        {
          "internalType": "uint256",
          "name": "",
          "type": "uint256"
        }
      ],
      "stateMutability": "view",
      "type": "function"
    },
    {
      "inputs": [
        {
          "internalType": "address",
          "name": "to",
          "type": "address"
        },
        {
          "internalType": "uint256",
          "name": "_amountToSell",
          "type": "uint256"
        }
      ],
      "name": "transferTo",
      "outputs": [],
      "stateMutability": "nonpayable",
      "type": "function"
    }
  ],
  "bytecode": "0x608060405234801561001057600080fd5b503060405161001e906100ca565b6100289190610119565b604051809103906000f080158015610044573d6000803e3d6000fd5b506000806101000a81548173ffffffffffffffffffffffffffffffffffffffff021916908373ffffffffffffffffffffffffffffffffffffffff16021790555033600160006101000a81548173ffffffffffffffffffffffffffffffffffffffff021916908373ffffffffffffffffffffffffffffffffffffffff160217905550610134565b611718806200102683390190565b600073ffffffffffffffffffffffffffffffffffffffff82169050919050565b6000610103826100d8565b9050919050565b610113816100f8565b82525050565b600060208201905061012e600083018461010a565b92915050565b610ee280620001446000396000f3fe6080604052600436106100705760003560e01c8063a6f2ae3a1161004e578063a6f2ae3a146100f4578063d9eb0a54146100fe578063e4849b321461013b578063fc0c546a1461016457610070565b80632ccb1b30146100755780638da5cb5b1461009e5780639e1a4d19146100c9575b600080fd5b34801561008157600080fd5b5061009c60048036038101906100979190610a7c565b61018f565b005b3480156100aa57600080fd5b506100b36103ef565b6040516100c09190610add565b60405180910390f35b3480156100d557600080fd5b506100de610415565b6040516100eb9190610b07565b60405180910390f35b6100fc6104b7565b005b34801561010a57600080fd5b5061012560048036038101906101209190610b22565b610627565b6040516101329190610b07565b60405180910390f35b34801561014757600080fd5b50610162600480360381019061015d9190610b4f565b6106cb565b005b34801561017057600080fd5b506101796109bf565b6040516101869190610bdb565b60405180910390f35b60008111801561023857508060008054906101000a900473ffffffffffffffffffffffffffffffffffffffff1673ffffffffffffffffffffffffffffffffffffffff166370a08231336040518263ffffffff1660e01b81526004016101f49190610c05565b602060405180830381865afa158015610211573d6000803e3d6000fd5b505050506040513d601f19601f820116820180604052508101906102359190610c35565b10155b610277576040517f08c379a000000000000000000000000000000000000000000000000000000000815260040161026e90610cbf565b60405180910390fd5b60008060009054906101000a900473ffffffffffffffffffffffffffffffffffffffff1673ffffffffffffffffffffffffffffffffffffffff1663dd62ed3e33856040518363ffffffff1660e01b81526004016102d5929190610cdf565b602060405180830381865afa1580156102f2573d6000803e3d6000fd5b505050506040513d601f19601f820116820180604052508101906103169190610c35565b90508181101561035b576040517f08c379a000000000000000000000000000000000000000000000000000000000815260040161035290610d54565b60405180910390fd5b60008054906101000a900473ffffffffffffffffffffffffffffffffffffffff1673ffffffffffffffffffffffffffffffffffffffff166323b872dd3385856040518463ffffffff1660e01b81526004016103b893929190610d74565b600060405180830381600087803b1580156103d257600080fd5b505af11580156103e6573d6000803e3d6000fd5b50505050505050565b600160009054906101000a900473ffffffffffffffffffffffffffffffffffffffff1681565b60008060009054906101000a900473ffffffffffffffffffffffffffffffffffffffff1673ffffffffffffffffffffffffffffffffffffffff166370a08231306040518263ffffffff1660e01b81526004016104719190610c05565b602060405180830381865afa15801561048e573d6000803e3d6000fd5b505050506040513d601f19601f820116820180604052508101906104b29190610c35565b905090565b6000349050600081116104ff576040517f08c379a00000000000000000000000000000000000000000000000000000000081526004016104f690610df7565b60405180910390fd5b80610508610415565b1015610549576040517f08c379a000000000000000000000000000000000000000000000000000000000815260040161054090610e63565b60405180910390fd5b60008054906101000a900473ffffffffffffffffffffffffffffffffffffffff1673ffffffffffffffffffffffffffffffffffffffff1663a9059cbb33836040518363ffffffff1660e01b81526004016105a4929190610e83565b600060405180830381600087803b1580156105be57600080fd5b505af11580156105d2573d6000803e3d6000fd5b505050503373ffffffffffffffffffffffffffffffffffffffff167fc54c8cc1c7525b424ec71b685c00d9355581a280488018c22005332ceb2fd4068260405161061c9190610b07565b60405180910390a250565b60008060009054906101000a900473ffffffffffffffffffffffffffffffffffffffff1673ffffffffffffffffffffffffffffffffffffffff166370a08231836040518263ffffffff1660e01b81526004016106839190610c05565b602060405180830381865afa1580156106a0573d6000803e3d6000fd5b505050506040513d601f19601f820116820180604052508101906106c49190610c35565b9050919050565b60008111801561077457508060008054906101000a900473ffffffffffffffffffffffffffffffffffffffff1673ffffffffffffffffffffffffffffffffffffffff166370a08231336040518263ffffffff1660e01b81526004016107309190610c05565b602060405180830381865afa15801561074d573d6000803e3d6000fd5b505050506040513d601f19601f820116820180604052508101906107719190610c35565b10155b6107b3576040517f08c379a00000000000000000000000000000000000000000000000000000000081526004016107aa90610cbf565b60405180910390fd5b60008060009054906101000a900473ffffffffffffffffffffffffffffffffffffffff1673ffffffffffffffffffffffffffffffffffffffff1663dd62ed3e33306040518363ffffffff1660e01b8152600401610811929190610cdf565b602060405180830381865afa15801561082e573d6000803e3d6000fd5b505050506040513d601f19601f820116820180604052508101906108529190610c35565b905081811015610897576040517f08c379a000000000000000000000000000000000000000000000000000000000815260040161088e90610d54565b60405180910390fd5b60008054906101000a900473ffffffffffffffffffffffffffffffffffffffff1673ffffffffffffffffffffffffffffffffffffffff166323b872dd3330856040518463ffffffff1660e01b81526004016108f493929190610d74565b600060405180830381600087803b15801561090e57600080fd5b505af1158015610922573d6000803e3d6000fd5b505050503373ffffffffffffffffffffffffffffffffffffffff166108fc839081150290604051600060405180830381858888f1935050505015801561096c573d6000803e3d6000fd5b503373ffffffffffffffffffffffffffffffffffffffff167fdc0971a41bd3cc3dec88e610438b1a9f0752975bbd80f195baf7b766c0aec03e836040516109b39190610b07565b60405180910390a25050565b60008054906101000a900473ffffffffffffffffffffffffffffffffffffffff1681565b600080fd5b600073ffffffffffffffffffffffffffffffffffffffff82169050919050565b6000610a13826109e8565b9050919050565b610a2381610a08565b8114610a2e57600080fd5b50565b600081359050610a4081610a1a565b92915050565b6000819050919050565b610a5981610a46565b8114610a6457600080fd5b50565b600081359050610a7681610a50565b92915050565b60008060408385031215610a9357610a926109e3565b5b6000610aa185828601610a31565b9250506020610ab285828601610a67565b9150509250929050565b6000610ac7826109e8565b9050919050565b610ad781610abc565b82525050565b6000602082019050610af26000830184610ace565b92915050565b610b0181610a46565b82525050565b6000602082019050610b1c6000830184610af8565b92915050565b600060208284031215610b3857610b376109e3565b5b6000610b4684828501610a31565b91505092915050565b600060208284031215610b6557610b646109e3565b5b6000610b7384828501610a67565b91505092915050565b6000819050919050565b6000610ba1610b9c610b97846109e8565b610b7c565b6109e8565b9050919050565b6000610bb382610b86565b9050919050565b6000610bc582610ba8565b9050919050565b610bd581610bba565b82525050565b6000602082019050610bf06000830184610bcc565b92915050565b610bff81610a08565b82525050565b6000602082019050610c1a6000830184610bf6565b92915050565b600081519050610c2f81610a50565b92915050565b600060208284031215610c4b57610c4a6109e3565b5b6000610c5984828501610c20565b91505092915050565b600082825260208201905092915050565b7f696e636f727265637420616d6f756e7421000000000000000000000000000000600082015250565b6000610ca9601183610c62565b9150610cb482610c73565b602082019050919050565b60006020820190508181036000830152610cd881610c9c565b9050919050565b6000604082019050610cf46000830185610bf6565b610d016020830184610bf6565b9392505050565b7f636865636b20616c6c6f77616e63652100000000000000000000000000000000600082015250565b6000610d3e601083610c62565b9150610d4982610d08565b602082019050919050565b60006020820190508181036000830152610d6d81610d31565b9050919050565b6000606082019050610d896000830186610bf6565b610d966020830185610bf6565b610da36040830184610af8565b949350505050565b7f6e6f7420656e6f7567682066756e647321000000000000000000000000000000600082015250565b6000610de1601183610c62565b9150610dec82610dab565b602082019050919050565b60006020820190508181036000830152610e1081610dd4565b9050919050565b7f6e6f7420656e6f75676820746f6b656e73210000000000000000000000000000600082015250565b6000610e4d601283610c62565b9150610e5882610e17565b602082019050919050565b60006020820190508181036000830152610e7c81610e40565b9050919050565b6000604082019050610e986000830185610bf6565b610ea56020830184610af8565b939250505056fea2646970667358221220f64a5b3f6bcef16ff1b1b9de3c2fc42d6c5757272ac85fafd221541fc4b9fad264736f6c6343000811003360806040523480156200001157600080fd5b506040516200171838038062001718833981810160405281019062000037919062000320565b6040518060400160405280600781526020017f4444576f726c64000000000000000000000000000000000000000000000000008152506040518060400160405280600381526020017f444457000000000000000000000000000000000000000000000000000000000081525064e8d4a51000838360049081620000bb9190620005cc565b508260059081620000cd9190620005cc565b5033600160006101000a81548173ffffffffffffffffffffffffffffffffffffffff021916908373ffffffffffffffffffffffffffffffffffffffff1602179055506200012182826200012c60201b60201c565b5050505050620007ce565b600160009054906101000a900473ffffffffffffffffffffffffffffffffffffffff1673ffffffffffffffffffffffffffffffffffffffff163373ffffffffffffffffffffffffffffffffffffffff1614620001bf576040517f08c379a0000000000000000000000000000000000000000000000000000000008152600401620001b69062000714565b60405180910390fd5b620001d360008284620002b160201b60201c565b81600260008373ffffffffffffffffffffffffffffffffffffffff1673ffffffffffffffffffffffffffffffffffffffff168152602001908152602001600020600082825462000224919062000765565b92505081905550816000808282546200023e919062000765565b925050819055508073ffffffffffffffffffffffffffffffffffffffff16600073ffffffffffffffffffffffffffffffffffffffff167fddf252ad1be2c89b69c2b068fc378daa952ba7f163c4a11628f55a4df523b3ef84604051620002a59190620007b1565b60405180910390a35050565b505050565b600080fd5b600073ffffffffffffffffffffffffffffffffffffffff82169050919050565b6000620002e882620002bb565b9050919050565b620002fa81620002db565b81146200030657600080fd5b50565b6000815190506200031a81620002ef565b92915050565b600060208284031215620003395762000338620002b6565b5b6000620003498482850162000309565b91505092915050565b600081519050919050565b7f4e487b7100000000000000000000000000000000000000000000000000000000600052604160045260246000fd5b7f4e487b7100000000000000000000000000000000000000000000000000000000600052602260045260246000fd5b60006002820490506001821680620003d457607f821691505b602082108103620003ea57620003e96200038c565b5b50919050565b60008190508160005260206000209050919050565b60006020601f8301049050919050565b600082821b905092915050565b600060088302620004547fffffffffffffffffffffffffffffffffffffffffffffffffffffffffffffffff8262000415565b62000460868362000415565b95508019841693508086168417925050509392505050565b6000819050919050565b6000819050919050565b6000620004ad620004a7620004a18462000478565b62000482565b62000478565b9050919050565b6000819050919050565b620004c9836200048c565b620004e1620004d882620004b4565b84845462000422565b825550505050565b600090565b620004f8620004e9565b62000505818484620004be565b505050565b5b818110156200052d5762000521600082620004ee565b6001810190506200050b565b5050565b601f8211156200057c576200054681620003f0565b620005518462000405565b8101602085101562000561578190505b62000579620005708562000405565b8301826200050a565b50505b505050565b600082821c905092915050565b6000620005a16000198460080262000581565b1980831691505092915050565b6000620005bc83836200058e565b9150826002028217905092915050565b620005d78262000352565b67ffffffffffffffff811115620005f357620005f26200035d565b5b620005ff8254620003bb565b6200060c82828562000531565b600060209050601f8311600181146200064457600084156200062f578287015190505b6200063b8582620005ae565b865550620006ab565b601f1984166200065486620003f0565b60005b828110156200067e5784890151825560018201915060208501945060208101905062000657565b868310156200069e57848901516200069a601f8916826200058e565b8355505b6001600288020188555050505b505050505050565b600082825260208201905092915050565b7f6e6f7420616e206f776e65722100000000000000000000000000000000000000600082015250565b6000620006fc600d83620006b3565b91506200070982620006c4565b602082019050919050565b600060208201905081810360008301526200072f81620006ed565b9050919050565b7f4e487b7100000000000000000000000000000000000000000000000000000000600052601160045260246000fd5b6000620007728262000478565b91506200077f8362000478565b92508282019050808211156200079a576200079962000736565b5b92915050565b620007ab8162000478565b82525050565b6000602082019050620007c86000830184620007a0565b92915050565b610f3a80620007de6000396000f3fe608060405234801561001057600080fd5b50600436106100a95760003560e01c806370a082311161007157806370a082311461014057806394bf804d1461017057806395d89b411461018c5780639dc29fac146101aa578063a9059cbb146101c6578063dd62ed3e146101e2576100a9565b806306fdde03146100ae578063095ea7b3146100cc57806318160ddd146100e857806323b872dd14610106578063313ce56714610122575b600080fd5b6100b6610212565b6040516100c39190610b10565b60405180910390f35b6100e660048036038101906100e19190610bcb565b6102a4565b005b6100f06102b3565b6040516100fd9190610c1a565b60405180910390f35b610120600480360381019061011b9190610c35565b6102bc565b005b61012a610499565b6040516101379190610c1a565b60405180910390f35b61015a60048036038101906101559190610c88565b6104a2565b6040516101679190610c1a565b60405180910390f35b61018a60048036038101906101859190610cb5565b6104eb565b005b61019461065f565b6040516101a19190610b10565b60405180910390f35b6101c460048036038101906101bf9190610bcb565b6106f1565b005b6101e060048036038101906101db9190610bcb565b6107ff565b005b6101fc60048036038101906101f79190610cf5565b61096e565b6040516102099190610c1a565b60405180910390f35b60606004805461022190610d64565b80601f016020809104026020016040519081016040528092919081815260200182805461024d90610d64565b801561029a5780601f1061026f5761010080835404028352916020019161029a565b820191906000526020600020905b81548152906001019060200180831161027d57829003601f168201915b5050505050905090565b6102af3383836109f5565b5050565b60008054905090565b8281806102c8836104a2565b1015610309576040517f08c379a000000000000000000000000000000000000000000000000000000000815260040161030090610de1565b60405180910390fd5b82600360008773ffffffffffffffffffffffffffffffffffffffff1673ffffffffffffffffffffffffffffffffffffffff16815260200190815260200160002060003373ffffffffffffffffffffffffffffffffffffffff1673ffffffffffffffffffffffffffffffffffffffff1681526020019081526020016000206000828254039250508190555082600260008773ffffffffffffffffffffffffffffffffffffffff1673ffffffffffffffffffffffffffffffffffffffff1681526020019081526020016000206000828254039250508190555082600260008673ffffffffffffffffffffffffffffffffffffffff1673ffffffffffffffffffffffffffffffffffffffff168152602001908152602001600020600082825401925050819055508373ffffffffffffffffffffffffffffffffffffffff168573ffffffffffffffffffffffffffffffffffffffff167fddf252ad1be2c89b69c2b068fc378daa952ba7f163c4a11628f55a4df523b3ef8560405161048a9190610c1a565b60405180910390a35050505050565b60006009905090565b6000600260008373ffffffffffffffffffffffffffffffffffffffff1673ffffffffffffffffffffffffffffffffffffffff168152602001908152602001600020549050919050565b600160009054906101000a900473ffffffffffffffffffffffffffffffffffffffff1673ffffffffffffffffffffffffffffffffffffffff163373ffffffffffffffffffffffffffffffffffffffff161461057b576040517f08c379a000000000000000000000000000000000000000000000000000000000815260040161057290610e4d565b60405180910390fd5b61058760008284610a7b565b81600260008373ffffffffffffffffffffffffffffffffffffffff1673ffffffffffffffffffffffffffffffffffffffff16815260200190815260200160002060008282546105d69190610e9c565b92505081905550816000808282546105ee9190610e9c565b925050819055508073ffffffffffffffffffffffffffffffffffffffff16600073ffffffffffffffffffffffffffffffffffffffff167fddf252ad1be2c89b69c2b068fc378daa952ba7f163c4a11628f55a4df523b3ef846040516106539190610c1a565b60405180910390a35050565b60606005805461066e90610d64565b80601f016020809104026020016040519081016040528092919081815260200182805461069a90610d64565b80156106e75780601f106106bc576101008083540402835291602001916106e7565b820191906000526020600020905b8154815290600101906020018083116106ca57829003601f168201915b5050505050905090565b600160009054906101000a900473ffffffffffffffffffffffffffffffffffffffff1673ffffffffffffffffffffffffffffffffffffffff163373ffffffffffffffffffffffffffffffffffffffff1614610781576040517f08c379a000000000000000000000000000000000000000000000000000000000815260040161077890610e4d565b60405180910390fd5b61078d82600083610a7b565b80600260008473ffffffffffffffffffffffffffffffffffffffff1673ffffffffffffffffffffffffffffffffffffffff16815260200190815260200160002060008282546107dc9190610ed0565b92505081905550806000808282546107f49190610ed0565b925050819055505050565b33818061080b836104a2565b101561084c576040517f08c379a000000000000000000000000000000000000000000000000000000000815260040161084390610de1565b60405180910390fd5b610857338585610a7b565b82600260003373ffffffffffffffffffffffffffffffffffffffff1673ffffffffffffffffffffffffffffffffffffffff16815260200190815260200160002060008282546108a69190610ed0565b9250508190555082600260008673ffffffffffffffffffffffffffffffffffffffff1673ffffffffffffffffffffffffffffffffffffffff16815260200190815260200160002060008282546108fc9190610e9c565b925050819055508373ffffffffffffffffffffffffffffffffffffffff163373ffffffffffffffffffffffffffffffffffffffff167fddf252ad1be2c89b69c2b068fc378daa952ba7f163c4a11628f55a4df523b3ef856040516109609190610c1a565b60405180910390a350505050565b6000600360008473ffffffffffffffffffffffffffffffffffffffff1673ffffffffffffffffffffffffffffffffffffffff16815260200190815260200160002060008373ffffffffffffffffffffffffffffffffffffffff1673ffffffffffffffffffffffffffffffffffffffff16815260200190815260200160002054905092915050565b80600360008573ffffffffffffffffffffffffffffffffffffffff1673ffffffffffffffffffffffffffffffffffffffff16815260200190815260200160002060008473ffffffffffffffffffffffffffffffffffffffff1673ffffffffffffffffffffffffffffffffffffffff16815260200190815260200160002081905550505050565b505050565b600081519050919050565b600082825260208201905092915050565b60005b83811015610aba578082015181840152602081019050610a9f565b60008484015250505050565b6000601f19601f8301169050919050565b6000610ae282610a80565b610aec8185610a8b565b9350610afc818560208601610a9c565b610b0581610ac6565b840191505092915050565b60006020820190508181036000830152610b2a8184610ad7565b905092915050565b600080fd5b600073ffffffffffffffffffffffffffffffffffffffff82169050919050565b6000610b6282610b37565b9050919050565b610b7281610b57565b8114610b7d57600080fd5b50565b600081359050610b8f81610b69565b92915050565b6000819050919050565b610ba881610b95565b8114610bb357600080fd5b50565b600081359050610bc581610b9f565b92915050565b60008060408385031215610be257610be1610b32565b5b6000610bf085828601610b80565b9250506020610c0185828601610bb6565b9150509250929050565b610c1481610b95565b82525050565b6000602082019050610c2f6000830184610c0b565b92915050565b600080600060608486031215610c4e57610c4d610b32565b5b6000610c5c86828701610b80565b9350506020610c6d86828701610b80565b9250506040610c7e86828701610bb6565b9150509250925092565b600060208284031215610c9e57610c9d610b32565b5b6000610cac84828501610b80565b91505092915050565b60008060408385031215610ccc57610ccb610b32565b5b6000610cda85828601610bb6565b9250506020610ceb85828601610b80565b9150509250929050565b60008060408385031215610d0c57610d0b610b32565b5b6000610d1a85828601610b80565b9250506020610d2b85828601610b80565b9150509250929050565b7f4e487b7100000000000000000000000000000000000000000000000000000000600052602260045260246000fd5b60006002820490506001821680610d7c57607f821691505b602082108103610d8f57610d8e610d35565b5b50919050565b7f6e6f7420656e6f75676820746f6b656e73210000000000000000000000000000600082015250565b6000610dcb601283610a8b565b9150610dd682610d95565b602082019050919050565b60006020820190508181036000830152610dfa81610dbe565b9050919050565b7f6e6f7420616e206f776e65722100000000000000000000000000000000000000600082015250565b6000610e37600d83610a8b565b9150610e4282610e01565b602082019050919050565b60006020820190508181036000830152610e6681610e2a565b9050919050565b7f4e487b7100000000000000000000000000000000000000000000000000000000600052601160045260246000fd5b6000610ea782610b95565b9150610eb283610b95565b9250828201905080821115610eca57610ec9610e6d565b5b92915050565b6000610edb82610b95565b9150610ee683610b95565b9250828203905081811115610efe57610efd610e6d565b5b9291505056fea2646970667358221220bdbd3a019405be53ad4ab8aadea12dc72958d649db8ac3ddc93b3c97292dcc9564736f6c63430008110033",
  "linkReferences": {},
  "deployedLinkReferences": {}
}